{
  "contractName": "Visitor",
  "abi": [
    {
      "constant": false,
      "inputs": [
        {
          "name": "manager",
          "type": "address"
        }
      ],
      "name": "addManager",
      "outputs": [],
      "payable": false,
      "stateMutability": "nonpayable",
      "type": "function",
      "signature": "0x2d06177a"
    },
    {
      "constant": false,
      "inputs": [
        {
          "name": "_id",
          "type": "uint256"
        }
      ],
      "name": "withdraw",
      "outputs": [],
      "payable": false,
      "stateMutability": "nonpayable",
      "type": "function",
      "signature": "0x2e1a7d4d"
    },
    {
      "constant": true,
      "inputs": [
        {
          "name": "",
          "type": "uint256"
        }
      ],
      "name": "managers",
      "outputs": [
        {
          "name": "",
          "type": "address"
        }
      ],
      "payable": false,
      "stateMutability": "view",
      "type": "function",
      "signature": "0x3d39c260"
    },
    {
      "constant": false,
      "inputs": [
        {
          "name": "_id",
          "type": "uint256"
        },
        {
          "name": "combatant",
          "type": "uint256"
        },
        {
          "name": "score",
          "type": "uint256"
        }
      ],
      "name": "updateScore",
      "outputs": [],
      "payable": false,
      "stateMutability": "nonpayable",
      "type": "function",
      "signature": "0x3f0a92fb"
    },
    {
      "constant": false,
      "inputs": [
        {
          "name": "_id",
          "type": "uint256"
        }
      ],
      "name": "cancel",
      "outputs": [],
      "payable": false,
      "stateMutability": "nonpayable",
      "type": "function",
      "signature": "0x40e58ee5"
    },
    {
      "constant": false,
      "inputs": [
        {
          "name": "_id",
          "type": "uint256"
        },
        {
          "name": "combatant",
          "type": "uint256"
        }
      ],
      "name": "repent",
      "outputs": [],
      "payable": false,
      "stateMutability": "nonpayable",
      "type": "function",
      "signature": "0x6ce52790"
    },
    {
      "constant": false,
      "inputs": [
        {
          "name": "_id",
          "type": "uint256"
        },
        {
          "name": "combatant",
          "type": "uint256"
        }
      ],
      "name": "join",
      "outputs": [],
      "payable": true,
      "stateMutability": "payable",
      "type": "function",
      "signature": "0x79e66b46"
    },
    {
      "constant": true,
      "inputs": [
        {
          "name": "",
          "type": "address"
        }
      ],
      "name": "royalty",
      "outputs": [
        {
          "name": "",
          "type": "uint256"
        }
      ],
      "payable": false,
      "stateMutability": "view",
      "type": "function",
      "signature": "0x861b69d6"
    },
    {
      "constant": true,
      "inputs": [],
      "name": "owner",
      "outputs": [
        {
          "name": "",
          "type": "address"
        }
      ],
      "payable": false,
      "stateMutability": "view",
      "type": "function",
      "signature": "0x8da5cb5b"
    },
    {
      "constant": true,
      "inputs": [],
      "name": "numOfManages",
      "outputs": [
        {
          "name": "",
          "type": "uint256"
        }
      ],
      "payable": false,
      "stateMutability": "view",
      "type": "function",
      "signature": "0xaaad24d0"
    },
    {
      "constant": false,
      "inputs": [
        {
          "name": "manager",
          "type": "address"
        }
      ],
      "name": "removeManager",
      "outputs": [],
      "payable": false,
      "stateMutability": "nonpayable",
      "type": "function",
      "signature": "0xac18de43"
    },
    {
      "constant": false,
      "inputs": [
        {
          "name": "_id",
          "type": "uint256"
        },
        {
          "name": "startTime",
          "type": "uint256"
        },
        {
          "name": "gameName",
          "type": "string"
        },
        {
          "name": "leftName",
          "type": "string"
        },
        {
          "name": "rightName",
          "type": "string"
        }
      ],
      "name": "creat",
      "outputs": [],
      "payable": false,
      "stateMutability": "nonpayable",
      "type": "function",
      "signature": "0xc7c1c2c2"
    },
    {
      "constant": false,
      "inputs": [
        {
          "name": "_id",
          "type": "uint256"
        }
      ],
      "name": "finish",
      "outputs": [],
      "payable": false,
      "stateMutability": "nonpayable",
      "type": "function",
      "signature": "0xd353a1cb"
    },
    {
      "constant": false,
      "inputs": [
        {
          "name": "_id",
          "type": "uint256"
        }
      ],
      "name": "lock",
      "outputs": [],
      "payable": false,
      "stateMutability": "nonpayable",
      "type": "function",
      "signature": "0xdd467064"
    },
    {
      "constant": false,
      "inputs": [
        {
          "name": "newOwner",
          "type": "address"
        }
      ],
      "name": "transferOwnership",
      "outputs": [],
      "payable": false,
      "stateMutability": "nonpayable",
      "type": "function",
      "signature": "0xf2fde38b"
    },
    {
      "anonymous": false,
      "inputs": [
        {
          "indexed": true,
          "name": "_id",
          "type": "uint256"
        },
        {
          "indexed": true,
          "name": "player",
          "type": "address"
        },
        {
          "indexed": false,
          "name": "combatant",
          "type": "uint256"
        },
        {
          "indexed": false,
          "name": "stakes",
          "type": "uint256"
        }
      ],
      "name": "_join",
      "type": "event",
      "signature": "0xadd33c52831a0b1c1f1f17c56aa20b5c040473e944e6f3475d38556c779df755"
    },
    {
      "anonymous": false,
      "inputs": [
        {
          "indexed": true,
          "name": "_id",
          "type": "uint256"
        },
        {
          "indexed": true,
          "name": "player",
          "type": "address"
        },
        {
          "indexed": false,
          "name": "combatant",
          "type": "uint256"
        },
        {
          "indexed": false,
          "name": "stakes",
          "type": "uint256"
        }
      ],
      "name": "_repent",
      "type": "event",
      "signature": "0x73eed075d58172e0b579e14129d5943b894bbc02470e758208ed3cf164b4e7a9"
    },
    {
      "anonymous": false,
      "inputs": [
        {
          "indexed": true,
          "name": "_id",
          "type": "uint256"
        },
        {
          "indexed": true,
          "name": "player",
          "type": "address"
        },
        {
          "indexed": false,
          "name": "award",
          "type": "uint256"
        }
      ],
      "name": "_withdraw",
      "type": "event",
      "signature": "0x491234459cc5c2ddc7327952ccf826b06930abbe200441971916f5e393da8872"
    },
    {
      "anonymous": false,
      "inputs": [
        {
          "indexed": true,
          "name": "_id",
          "type": "uint256"
        },
        {
          "indexed": false,
          "name": "gameName",
          "type": "string"
        },
        {
          "indexed": false,
          "name": "startTime",
          "type": "uint256"
        },
        {
          "indexed": false,
          "name": "leftName",
          "type": "string"
        },
        {
          "indexed": false,
          "name": "rightName",
          "type": "string"
        }
      ],
      "name": "_creat",
      "type": "event",
      "signature": "0xb8c8322ac4e6ae368af6cfc837a0906e4ee9a35f49ef8b747adcd46dfdac5859"
    },
    {
      "anonymous": false,
      "inputs": [
        {
          "indexed": true,
          "name": "_id",
          "type": "uint256"
        }
      ],
      "name": "_cancel",
      "type": "event",
      "signature": "0x4efae47c6e6478ccc4dce1a2eefdbc93ba85a2822602ec18860a9ea5ce841c5b"
    },
    {
      "anonymous": false,
      "inputs": [
        {
          "indexed": true,
          "name": "_id",
          "type": "uint256"
        }
      ],
      "name": "_lock",
      "type": "event",
      "signature": "0x8ec22837bcbc063bf52cff498b2e9675cec54e6a3b14d076c920a6c8272f99d0"
    },
    {
      "anonymous": false,
      "inputs": [
        {
          "indexed": true,
          "name": "_id",
          "type": "uint256"
        },
        {
          "indexed": false,
          "name": "winner",
          "type": "uint256"
        }
      ],
      "name": "_finish",
      "type": "event",
      "signature": "0x0927c65aa785cfbe2fdc3436508df236f9d1ba0b35b6ed3a55e73a3159dca7a8"
    },
    {
      "anonymous": false,
      "inputs": [
        {
          "indexed": true,
          "name": "previousOwner",
          "type": "address"
        },
        {
          "indexed": true,
          "name": "newOwner",
          "type": "address"
        }
      ],
      "name": "OwnershipTransferred",
      "type": "event",
      "signature": "0x8be0079c531659141344cd1fd0a4f28419497f9722a3daafe3b4186f6b6457e0"
    },
    {
      "constant": true,
      "inputs": [
        {
          "name": "_id",
          "type": "uint256"
        }
      ],
      "name": "getQuiz",
      "outputs": [
        {
          "name": "id",
          "type": "uint256"
        },
        {
          "name": "stage",
          "type": "uint8"
        },
        {
          "name": "startTime",
          "type": "uint256"
        },
        {
          "name": "gameName",
          "type": "string"
        },
        {
          "name": "leftName",
          "type": "string"
        },
        {
          "name": "leftBet",
          "type": "uint256"
        },
        {
          "name": "leftScore",
          "type": "uint256"
        },
        {
          "name": "rightName",
          "type": "string"
        },
        {
          "name": "rightBet",
          "type": "uint256"
        },
        {
          "name": "rightScore",
          "type": "uint256"
        }
      ],
      "payable": false,
      "stateMutability": "view",
      "type": "function",
      "signature": "0xa3f7e096"
    },
    {
      "constant": true,
      "inputs": [
        {
          "name": "_id",
          "type": "uint256"
        },
        {
          "name": "combatant",
          "type": "uint256"
        }
      ],
      "name": "getPlayerCombatantBet",
      "outputs": [
        {
          "name": "",
          "type": "uint256"
        }
      ],
      "payable": false,
      "stateMutability": "view",
      "type": "function",
      "signature": "0x3a4164f1"
    },
    {
      "constant": true,
      "inputs": [
        {
          "name": "_id",
          "type": "uint256"
        }
      ],
      "name": "getPlayerAward",
      "outputs": [
        {
          "name": "",
          "type": "uint256"
        }
      ],
      "payable": false,
      "stateMutability": "view",
      "type": "function",
      "signature": "0xff87bcc2"
    },
    {
      "constant": true,
      "inputs": [
        {
          "name": "_id",
          "type": "uint256"
        }
      ],
      "name": "getQuizWinner",
      "outputs": [
        {
          "name": "",
          "type": "uint256"
        }
      ],
      "payable": false,
      "stateMutability": "view",
      "type": "function",
      "signature": "0xd90603d2"
    }
  ],
  "bytecode": "0x608060405268056bc75e2d63100000600455336000806101000a81548173ffffffffffffffffffffffffffffffffffffffff021916908373ffffffffffffffffffffffffffffffffffffffff160217905550612e51806100606000396000f3fe608060405260043610610107576000357c0100000000000000000000000000000000000000000000000000000000900463ffffffff1680632d06177a1461010c5780632e1a7d4d1461015d5780633a4164f1146101985780633d39c260146101f15780633f0a92fb1461026c57806340e58ee5146102bb5780636ce52790146102f657806379e66b461461033b578063861b69d6146103735780638da5cb5b146103d8578063a3f7e0961461042f578063aaad24d0146105fa578063ac18de4314610625578063c7c1c2c214610676578063d353a1cb14610880578063d90603d2146108bb578063dd4670641461090a578063f2fde38b14610945578063ff87bcc214610996575b600080fd5b34801561011857600080fd5b5061015b6004803603602081101561012f57600080fd5b81019080803573ffffffffffffffffffffffffffffffffffffffff1690602001909291905050506109e5565b005b34801561016957600080fd5b506101966004803603602081101561018057600080fd5b8101908080359060200190929190505050610bb9565b005b3480156101a457600080fd5b506101db600480360360408110156101bb57600080fd5b810190808035906020019092919080359060200190929190505050610e34565b6040518082815260200191505060405180910390f35b3480156101fd57600080fd5b5061022a6004803603602081101561021457600080fd5b8101908080359060200190929190505050610f29565b604051808273ffffffffffffffffffffffffffffffffffffffff1673ffffffffffffffffffffffffffffffffffffffff16815260200191505060405180910390f35b34801561027857600080fd5b506102b96004803603606081101561028f57600080fd5b81019080803590602001909291908035906020019092919080359060200190929190505050610f67565b005b3480156102c757600080fd5b506102f4600480360360208110156102de57600080fd5b81019080803590602001909291905050506110c9565b005b34801561030257600080fd5b506103396004803603604081101561031957600080fd5b81019080803590602001909291908035906020019092919050505061125f565b005b6103716004803603604081101561035157600080fd5b8101908080359060200190929190803590602001909291905050506115de565b005b34801561037f57600080fd5b506103c26004803603602081101561039657600080fd5b81019080803573ffffffffffffffffffffffffffffffffffffffff16906020019092919050505061189f565b6040518082815260200191505060405180910390f35b3480156103e457600080fd5b506103ed6118b7565b604051808273ffffffffffffffffffffffffffffffffffffffff1673ffffffffffffffffffffffffffffffffffffffff16815260200191505060405180910390f35b34801561043b57600080fd5b506104686004803603602081101561045257600080fd5b81019080803590602001909291905050506118dc565b604051808b81526020018a600481111561047e57fe5b60ff16815260200189815260200180602001806020018881526020018781526020018060200186815260200185815260200184810384528b818151815260200191508051906020019080838360005b838110156104e85780820151818401526020810190506104cd565b50505050905090810190601f1680156105155780820380516001836020036101000a031916815260200191505b5084810383528a818151815260200191508051906020019080838360005b8381101561054e578082015181840152602081019050610533565b50505050905090810190601f16801561057b5780820380516001836020036101000a031916815260200191505b50848103825287818151815260200191508051906020019080838360005b838110156105b4578082015181840152602081019050610599565b50505050905090810190601f1680156105e15780820380516001836020036101000a031916815260200191505b509d505050505050505050505050505060405180910390f35b34801561060657600080fd5b5061060f611c10565b6040518082815260200191505060405180910390f35b34801561063157600080fd5b506106746004803603602081101561064857600080fd5b81019080803573ffffffffffffffffffffffffffffffffffffffff169060200190929190505050611c16565b005b34801561068257600080fd5b5061087e600480360360a081101561069957600080fd5b810190808035906020019092919080359060200190929190803590602001906401000000008111156106ca57600080fd5b8201836020820111156106dc57600080fd5b803590602001918460018302840111640100000000831117156106fe57600080fd5b91908080601f016020809104026020016040519081016040528093929190818152602001838380828437600081840152601f19601f8201169050808301925050505050505091929192908035906020019064010000000081111561076157600080fd5b82018360208201111561077357600080fd5b8035906020019184600183028401116401000000008311171561079557600080fd5b91908080601f016020809104026020016040519081016040528093929190818152602001838380828437600081840152601f19601f820116905080830192505050505050509192919290803590602001906401000000008111156107f857600080fd5b82018360208201111561080a57600080fd5b8035906020019184600183028401116401000000008311171561082c57600080fd5b91908080601f016020809104026020016040519081016040528093929190818152602001838380828437600081840152601f19601f820116905080830192505050505050509192919290505050611dc1565b005b34801561088c57600080fd5b506108b9600480360360208110156108a357600080fd5b8101908080359060200190929190505050612173565b005b3480156108c757600080fd5b506108f4600480360360208110156108de57600080fd5b810190808035906020019092919050505061236d565b6040518082815260200191505060405180910390f35b34801561091657600080fd5b506109436004803603602081101561092d57600080fd5b810190808035906020019092919050505061237f565b005b34801561095157600080fd5b506109946004803603602081101561096857600080fd5b81019080803573ffffffffffffffffffffffffffffffffffffffff169060200190929190505050612515565b005b3480156109a257600080fd5b506109cf600480360360208110156109b957600080fd5b810190808035906020019092919050505061273c565b6040518082815260200191505060405180910390f35b6000809054906101000a900473ffffffffffffffffffffffffffffffffffffffff1673ffffffffffffffffffffffffffffffffffffffff163373ffffffffffffffffffffffffffffffffffffffff16141515610aa9576040517f08c379a00000000000000000000000000000000000000000000000000000000081526004018080602001828103825260128152602001807f4e6f7420436f6e7472616374204f776e6572000000000000000000000000000081525060200191505060405180910390fd5b60008090505b600180549050811015610b3c578173ffffffffffffffffffffffffffffffffffffffff16600182815481101515610ae257fe5b9060005260206000200160009054906101000a900473ffffffffffffffffffffffffffffffffffffffff1673ffffffffffffffffffffffffffffffffffffffff161415610b2f5750610bb6565b8080600101915050610aaf565b5060018190806001815401808255809150509060018203906000526020600020016000909192909190916101000a81548173ffffffffffffffffffffffffffffffffffffffff021916908373ffffffffffffffffffffffffffffffffffffffff160217905550506003600081548092919060010191905055505b50565b6000600560008381526020019081526020016000209050600480811115610bdc57fe5b8160000160009054906101000a900460ff166004811115610bf957fe5b141515610c6e576040517f08c379a00000000000000000000000000000000000000000000000000000000081526004018080602001828103825260158152602001807f5175697a206d7573742062652066696e6973686564000000000000000000000081525060200191505060405180910390fd5b8060040160003373ffffffffffffffffffffffffffffffffffffffff1673ffffffffffffffffffffffffffffffffffffffff16815260200190815260200160002060009054906101000a900460ff16151515610d32576040517f08c379a00000000000000000000000000000000000000000000000000000000081526004018080602001828103825260168152602001807f48617320616c726561647920776974686472617765640000000000000000000081525060200191505060405180910390fd5b6000610d3d83612862565b905060018260040160003373ffffffffffffffffffffffffffffffffffffffff1673ffffffffffffffffffffffffffffffffffffffff16815260200190815260200160002060006101000a81548160ff0219169083151502179055503373ffffffffffffffffffffffffffffffffffffffff166108fc829081150290604051600060405180830381858888f19350505050158015610ddf573d6000803e3d6000fd5b503373ffffffffffffffffffffffffffffffffffffffff16837f491234459cc5c2ddc7327952ccf826b06930abbe200441971916f5e393da8872836040518082815260200191505060405180910390a3505050565b60006001821480610e455750600282145b1515610eb9576040517f08c379a000000000000000000000000000000000000000000000000000000000815260040180806020018281038252601c8152602001807f436f6d626174616e742063616e206f6e6c792062652031206f7220320000000081525060200191505060405180910390fd5b60056000848152602001908152602001600020600301600083815260200190815260200160002060030160003373ffffffffffffffffffffffffffffffffffffffff1673ffffffffffffffffffffffffffffffffffffffff16815260200190815260200160002054905092915050565b600181815481101515610f3857fe5b906000526020600020016000915054906101000a900473ffffffffffffffffffffffffffffffffffffffff1681565b610f7033612a16565b1515610fe4576040517f08c379a000000000000000000000000000000000000000000000000000000000815260040180806020018281038252600b8152602001807f4e6f74204d616e6167657200000000000000000000000000000000000000000081525060200191505060405180910390fd5b60026004811115610ff157fe5b6005600085815260200190815260200160002060000160009054906101000a900460ff16600481111561102057fe5b141515611095576040517f08c379a00000000000000000000000000000000000000000000000000000000081526004018080602001828103825260138152602001807f5175697a206d757374206265206c6f636b65640000000000000000000000000081525060200191505060405180910390fd5b8060056000858152602001908152602001600020600301600084815260200190815260200160002060000181905550505050565b6110d233612a16565b1515611146576040517f08c379a000000000000000000000000000000000000000000000000000000000815260040180806020018281038252600b8152602001807f4e6f74204d616e6167657200000000000000000000000000000000000000000081525060200191505060405180910390fd5b60048081111561115257fe5b6005600083815260200190815260200160002060000160009054906101000a900460ff16600481111561118157fe5b141515156111f7576040517f08c379a00000000000000000000000000000000000000000000000000000000081526004018080602001828103825260198152602001807f5175697a206d757374206e6f742062652066696e69736865640000000000000081525060200191505060405180910390fd5b60036005600083815260200190815260200160002060000160006101000a81548160ff0219169083600481111561122a57fe5b0217905550807f4efae47c6e6478ccc4dce1a2eefdbc93ba85a2822602ec18860a9ea5ce841c5b60405160405180910390a250565b6000600560008481526020019081526020016000209050600081600301600084815260200190815260200160002090506001600481111561129c57fe5b8260000160009054906101000a900460ff1660048111156112b957fe5b14806112ec5750600360048111156112cd57fe5b8260000160009054906101000a900460ff1660048111156112ea57fe5b145b1515611360576040517f08c379a00000000000000000000000000000000000000000000000000000000081526004018080602001828103825260208152602001807f5175697a206d75737420626520616374697665206f722063616e63656c6c656481525060200191505060405180910390fd5b600183148061136f5750600283145b15156113e3576040517f08c379a000000000000000000000000000000000000000000000000000000000815260040180806020018281038252601c8152602001807f436f6d626174616e742063616e206f6e6c792062652031206f7220320000000081525060200191505060405180910390fd5b60008160030160003373ffffffffffffffffffffffffffffffffffffffff1673ffffffffffffffffffffffffffffffffffffffff168152602001908152602001600020541415151561149d576040517f08c379a000000000000000000000000000000000000000000000000000000000815260040180806020018281038252601e8152602001807f5468697320636f6d626174616e74206973206e6f742073656c6563746564000081525060200191505060405180910390fd5b60008160030160003373ffffffffffffffffffffffffffffffffffffffff1673ffffffffffffffffffffffffffffffffffffffff16815260200190815260200160002054905080826001015403826001018190555060008260030160003373ffffffffffffffffffffffffffffffffffffffff1673ffffffffffffffffffffffffffffffffffffffff168152602001908152602001600020819055503373ffffffffffffffffffffffffffffffffffffffff166108fc829081150290604051600060405180830381858888f1935050505015801561157f573d6000803e3d6000fd5b503373ffffffffffffffffffffffffffffffffffffffff16857f73eed075d58172e0b579e14129d5943b894bbc02470e758208ed3cf164b4e7a98684604051808381526020018281526020019250505060405180910390a35050505050565b60006005600084815260200190815260200160002090506001600481111561160257fe5b8160000160009054906101000a900460ff16600481111561161f57fe5b141515611694576040517f08c379a00000000000000000000000000000000000000000000000000000000081526004018080602001828103825260138152602001807f5175697a206d757374206265206163746976650000000000000000000000000081525060200191505060405180910390fd5b60018214806116a35750600282145b1515611717576040517f08c379a000000000000000000000000000000000000000000000000000000000815260040180806020018281038252601c8152602001807f436f6d626174616e742063616e206f6e6c792062652031206f7220320000000081525060200191505060405180910390fd5b6004543410151515611791576040517f08c379a000000000000000000000000000000000000000000000000000000000815260040180806020018281038252601d8152602001807f426574206d7573742062652061626f766520746865206d696e696d756d00000081525060200191505060405180910390fd5b60008160030160008481526020019081526020016000209050348160010154018160010181905550348160030160003373ffffffffffffffffffffffffffffffffffffffff1673ffffffffffffffffffffffffffffffffffffffff16815260200190815260200160002054018160030160003373ffffffffffffffffffffffffffffffffffffffff1673ffffffffffffffffffffffffffffffffffffffff168152602001908152602001600020819055503373ffffffffffffffffffffffffffffffffffffffff16847fadd33c52831a0b1c1f1f17c56aa20b5c040473e944e6f3475d38556c779df7558534604051808381526020018281526020019250505060405180910390a350505050565b60026020528060005260406000206000915090505481565b6000809054906101000a900473ffffffffffffffffffffffffffffffffffffffff1681565b60008060006060806000806060600080600060048111156118f957fe5b600560008d815260200190815260200160002060000160009054906101000a900460ff16600481111561192857fe5b1415151561199e576040517f08c379a000000000000000000000000000000000000000000000000000000000815260040180806020018281038252600f8152602001807f5175697a206e6f7420657869746564000000000000000000000000000000000081525060200191505060405180910390fd5b6000600560008d815260200190815260200160002090508b9a508060000160009054906101000a900460ff16995080600101549850806002018054600181600116156101000203166002900480601f016020809104026020016040519081016040528092919081815260200182805460018160011615610100020316600290048015611a6b5780601f10611a4057610100808354040283529160200191611a6b565b820191906000526020600020905b815481529060010190602001808311611a4e57829003601f168201915b5050505050975060008160030160006001815260200190815260200160002090506000826003016000600281526020019081526020016000209050816002018054600181600116156101000203166002900480601f016020809104026020016040519081016040528092919081815260200182805460018160011615610100020316600290048015611b3e5780601f10611b1357610100808354040283529160200191611b3e565b820191906000526020600020905b815481529060010190602001808311611b2157829003601f168201915b505050505098508160010154975081600001549650806002018054600181600116156101000203166002900480601f016020809104026020016040519081016040528092919081815260200182805460018160011615610100020316600290048015611beb5780601f10611bc057610100808354040283529160200191611beb565b820191906000526020600020905b815481529060010190602001808311611bce57829003601f168201915b5050505050955080600101549450806000015493505050509193959799509193959799565b60035481565b6000809054906101000a900473ffffffffffffffffffffffffffffffffffffffff1673ffffffffffffffffffffffffffffffffffffffff163373ffffffffffffffffffffffffffffffffffffffff16141515611cda576040517f08c379a00000000000000000000000000000000000000000000000000000000081526004018080602001828103825260128152602001807f4e6f7420436f6e7472616374204f776e6572000000000000000000000000000081525060200191505060405180910390fd5b60008090505b600180549050811015611dbc578173ffffffffffffffffffffffffffffffffffffffff16600182815481101515611d1357fe5b9060005260206000200160009054906101000a900473ffffffffffffffffffffffffffffffffffffffff1673ffffffffffffffffffffffffffffffffffffffff161415611daf57600181815481101515611d6957fe5b9060005260206000200160006101000a81549073ffffffffffffffffffffffffffffffffffffffff02191690556003600081548092919060019003919050555050611dbe565b8080600101915050611ce0565b505b50565b611dca33612a16565b1515611e3e576040517f08c379a000000000000000000000000000000000000000000000000000000000815260040180806020018281038252600b8152602001807f4e6f74204d616e6167657200000000000000000000000000000000000000000081525060200191505060405180910390fd5b60006004811115611e4b57fe5b6005600087815260200190815260200160002060000160009054906101000a900460ff166004811115611e7a57fe5b141515611eef576040517f08c379a00000000000000000000000000000000000000000000000000000000081526004018080602001828103825260138152602001807f5175697a20616c7265616479206578697374730000000000000000000000000081525060200191505060405180910390fd5b60016005600087815260200190815260200160002060000160006101000a81548160ff02191690836004811115611f2257fe5b021790555083600560008781526020019081526020016000206001018190555082600560008781526020019081526020016000206002019080519060200190611f6c929190612d80565b5081600560008781526020019081526020016000206003016000600181526020019081526020016000206002019080519060200190611fac929190612d80565b5080600560008781526020019081526020016000206003016000600281526020019081526020016000206002019080519060200190611fec929190612d80565b50847fb8c8322ac4e6ae368af6cfc837a0906e4ee9a35f49ef8b747adcd46dfdac58598486858560405180806020018581526020018060200180602001848103845288818151815260200191508051906020019080838360005b83811015612061578082015181840152602081019050612046565b50505050905090810190601f16801561208e5780820380516001836020036101000a031916815260200191505b50848103835286818151815260200191508051906020019080838360005b838110156120c75780820151818401526020810190506120ac565b50505050905090810190601f1680156120f45780820380516001836020036101000a031916815260200191505b50848103825285818151815260200191508051906020019080838360005b8381101561212d578082015181840152602081019050612112565b50505050905090810190601f16801561215a5780820380516001836020036101000a031916815260200191505b5097505050505050505060405180910390a25050505050565b61217c33612a16565b15156121f0576040517f08c379a000000000000000000000000000000000000000000000000000000000815260040180806020018281038252600b8152602001807f4e6f74204d616e6167657200000000000000000000000000000000000000000081525060200191505060405180910390fd5b60006005600083815260200190815260200160002090506002600481111561221457fe5b8160000160009054906101000a900460ff16600481111561223157fe5b1415156122a6576040517f08c379a00000000000000000000000000000000000000000000000000000000081526004018080602001828103825260138152602001807f5175697a206d757374206265206c6f636b65640000000000000000000000000081525060200191505060405180910390fd5b60048160000160006101000a81548160ff021916908360048111156122c757fe5b02179055506000816003016000600281526020019081526020016000206001015482600301600060018152602001908152602001600020600101540190506123286003546103e88381151561231857fe5b0481151561232257fe5b04612b18565b827f0927c65aa785cfbe2fdc3436508df236f9d1ba0b35b6ed3a55e73a3159dca7a861235385612c37565b6040518082815260200191505060405180910390a2505050565b600061237882612c37565b9050919050565b61238833612a16565b15156123fc576040517f08c379a000000000000000000000000000000000000000000000000000000000815260040180806020018281038252600b8152602001807f4e6f74204d616e6167657200000000000000000000000000000000000000000081525060200191505060405180910390fd5b6001600481111561240957fe5b6005600083815260200190815260200160002060000160009054906101000a900460ff16600481111561243857fe5b1415156124ad576040517f08c379a00000000000000000000000000000000000000000000000000000000081526004018080602001828103825260138152602001807f5175697a206d757374206265206163746976650000000000000000000000000081525060200191505060405180910390fd5b60026005600083815260200190815260200160002060000160006101000a81548160ff021916908360048111156124e057fe5b0217905550807f8ec22837bcbc063bf52cff498b2e9675cec54e6a3b14d076c920a6c8272f99d060405160405180910390a250565b6000809054906101000a900473ffffffffffffffffffffffffffffffffffffffff1673ffffffffffffffffffffffffffffffffffffffff163373ffffffffffffffffffffffffffffffffffffffff161415156125d9576040517f08c379a00000000000000000000000000000000000000000000000000000000081526004018080602001828103825260128152602001807f4e6f7420436f6e7472616374204f776e6572000000000000000000000000000081525060200191505060405180910390fd5b600073ffffffffffffffffffffffffffffffffffffffff168173ffffffffffffffffffffffffffffffffffffffff161415151561267e576040517f08c379a000000000000000000000000000000000000000000000000000000000815260040180806020018281038252600c8152602001807f5a65726f2041646472657373000000000000000000000000000000000000000081525060200191505060405180910390fd5b8073ffffffffffffffffffffffffffffffffffffffff166000809054906101000a900473ffffffffffffffffffffffffffffffffffffffff1673ffffffffffffffffffffffffffffffffffffffff167f8be0079c531659141344cd1fd0a4f28419497f9722a3daafe3b4186f6b6457e060405160405180910390a3806000806101000a81548173ffffffffffffffffffffffffffffffffffffffff021916908373ffffffffffffffffffffffffffffffffffffffff16021790555050565b60008060056000848152602001908152602001600020905060048081111561276057fe5b8160000160009054906101000a900460ff16600481111561277d57fe5b1415156127f2576040517f08c379a00000000000000000000000000000000000000000000000000000000081526004018080602001828103825260158152602001807f5175697a206d7573742062652066696e6973686564000000000000000000000081525060200191505060405180910390fd5b8060040160003373ffffffffffffffffffffffffffffffffffffffff1673ffffffffffffffffffffffffffffffffffffffff16815260200190815260200160002060009054906101000a900460ff161561285057600091505061285d565b61285983612862565b9150505b919050565b60008060056000848152602001908152602001600020905060008160030160006002815260200190815260200160002060010154826003016000600181526020019081526020016000206001015401905060006128be85612c37565b9050600060018214806128d15750600282145b15612958578360030160008381526020019081526020016000206001015484600301600084815260200190815260200160002060030160003373ffffffffffffffffffffffffffffffffffffffff1673ffffffffffffffffffffffffffffffffffffffff16815260200190815260200160002054840281151561295057fe5b049050612a0a565b8360030160006002815260200190815260200160002060030160003373ffffffffffffffffffffffffffffffffffffffff1673ffffffffffffffffffffffffffffffffffffffff168152602001908152602001600020548460030160006001815260200190815260200160002060030160003373ffffffffffffffffffffffffffffffffffffffff1673ffffffffffffffffffffffffffffffffffffffff168152602001908152602001600020540190505b80945050505050919050565b60008173ffffffffffffffffffffffffffffffffffffffff166000809054906101000a900473ffffffffffffffffffffffffffffffffffffffff1673ffffffffffffffffffffffffffffffffffffffff161415612a765760019050612b13565b60008090505b600180549050811015612b0d578273ffffffffffffffffffffffffffffffffffffffff16600182815481101515612aaf57fe5b9060005260206000200160009054906101000a900473ffffffffffffffffffffffffffffffffffffffff1673ffffffffffffffffffffffffffffffffffffffff161415612b00576001915050612b13565b8080600101915050612a7c565b50600090505b919050565b60008090505b600180549050811015612c33576000600182815481101515612b3c57fe5b9060005260206000200160009054906101000a900473ffffffffffffffffffffffffffffffffffffffff169050600073ffffffffffffffffffffffffffffffffffffffff168173ffffffffffffffffffffffffffffffffffffffff16141515612c255782600260008373ffffffffffffffffffffffffffffffffffffffff1673ffffffffffffffffffffffffffffffffffffffff1681526020019081526020016000205401600260008373ffffffffffffffffffffffffffffffffffffffff1673ffffffffffffffffffffffffffffffffffffffff168152602001908152602001600020819055505b508080600101915050612b1e565b5050565b600080600560008481526020019081526020016000209050600480811115612c5b57fe5b8160000160009054906101000a900460ff166004811115612c7857fe5b141515612ced576040517f08c379a00000000000000000000000000000000000000000000000000000000081526004018080602001828103825260158152602001807f5175697a206d7573742062652046696e6973686564000000000000000000000081525060200191505060405180910390fd5b806003016000600281526020019081526020016000206000015481600301600060018152602001908152602001600020600001541115612d31576001915050612d7b565b806003016000600281526020019081526020016000206000015481600301600060018152602001908152602001600020600001541015612d75576002915050612d7b565b60009150505b919050565b828054600181600116156101000203166002900490600052602060002090601f016020900481019282601f10612dc157805160ff1916838001178555612def565b82800160010185558215612def579182015b82811115612dee578251825591602001919060010190612dd3565b5b509050612dfc9190612e00565b5090565b612e2291905b80821115612e1e576000816000905550600101612e06565b5090565b9056fea165627a7a72305820cca10b6171b7e20d63a67a0220706a5d12e5a65ed0c86e18391dc4a3be40dc580029",
  "source": "pragma solidity >=0.4.24 <0.6.0;\n\nimport \"./Player.sol\";\n\n\ncontract Visitor is Player {\n    function getQuiz(uint _id) public view returns(\n        uint id, Stages stage,uint startTime, string memory gameName,\n        string memory leftName, uint leftBet, uint leftScore,\n        string memory rightName, uint rightBet,  uint rightScore\n    ) {\n        require(quizs[_id].stage != Stages.None, \"Quiz not exited\");\n        Quiz storage quiz = quizs[_id];\n        id = _id;\n        stage = quiz.stage;\n        startTime = quiz.startTime;\n        gameName = quiz.gameName;\n\n        Combatant storage left = quiz.combatants[left];\n        Combatant storage right = quiz.combatants[right];\n\n        leftName = left.name;\n        leftBet = left.totalBet;\n        leftScore = left.score;\n        rightName = right.name;\n        rightBet = right.totalBet;\n        rightScore = right.score;\n    }\n\n    function getPlayerCombatantBet(uint _id, uint combatant) public view returns(uint) {\n        require(combatant == left || combatant == right, \"Combatant can only be 1 or 2\");\n        return quizs[_id].combatants[combatant].bets[msg.sender];\n    }\n\n    function getPlayerAward(uint _id) public view returns(uint) {\n        Quiz storage quiz = quizs[_id];\n        require(quiz.stage == Stages.Finished, \"Quiz must be finished\");\n        if (quiz.hasWithdraw[msg.sender]) {\n            return 0;\n        }\n        return _award(_id);\n    }\n\n    function getQuizWinner(uint _id) public view returns(uint) {\n        return _winner(_id);\n    }\n}\n",
  "sourcePath": "/Users/hanxiao/Desktop/bet/contracts/Visitor.sol",
  "compiler": {
    "name": "solc",
    "version": "0.5.0+commit.1d4f565a.Emscripten.clang"
  },
  "schemaVersion": "3.0.1",
  "updatedAt": "2019-04-01T10:45:40.054Z",
  "devdoc": {
    "methods": {
      "transferOwnership(address)": {
        "details": "Allows the current owner to transfer control of the contract to a newOwner.",
        "params": {
          "newOwner": "The address to transfer ownership to."
        }
      }
    }
  },
  "userdoc": {
    "methods": {}
  }
}