{
  "contractName": "Visitor",
  "abi": [
    {
      "constant": false,
      "inputs": [
        {
          "name": "_id",
          "type": "uint256"
        }
      ],
      "name": "withdraw",
      "outputs": [],
      "payable": false,
      "stateMutability": "nonpayable",
      "type": "function",
      "signature": "0x2e1a7d4d"
    },
    {
      "constant": false,
      "inputs": [
        {
          "name": "_id",
          "type": "uint256"
        },
        {
          "name": "combatant",
          "type": "uint256"
        },
        {
          "name": "score",
          "type": "uint256"
        }
      ],
      "name": "updateScore",
      "outputs": [],
      "payable": false,
      "stateMutability": "nonpayable",
      "type": "function",
      "signature": "0x3f0a92fb"
    },
    {
      "constant": false,
      "inputs": [
        {
          "name": "_id",
          "type": "uint256"
        }
      ],
      "name": "cancel",
      "outputs": [],
      "payable": false,
      "stateMutability": "nonpayable",
      "type": "function",
      "signature": "0x40e58ee5"
    },
    {
      "constant": false,
      "inputs": [
        {
          "name": "_id",
          "type": "uint256"
        },
        {
          "name": "combatant",
          "type": "uint256"
        }
      ],
      "name": "repent",
      "outputs": [],
      "payable": false,
      "stateMutability": "nonpayable",
      "type": "function",
      "signature": "0x6ce52790"
    },
    {
      "constant": false,
      "inputs": [
        {
          "name": "_id",
          "type": "uint256"
        },
        {
          "name": "combatant",
          "type": "uint256"
        }
      ],
      "name": "join",
      "outputs": [],
      "payable": true,
      "stateMutability": "payable",
      "type": "function",
      "signature": "0x79e66b46"
    },
    {
      "constant": false,
      "inputs": [
        {
          "name": "_id",
          "type": "uint256"
        },
        {
          "name": "startTime",
          "type": "uint256"
        },
        {
          "name": "gameName",
          "type": "string"
        },
        {
          "name": "leftName",
          "type": "string"
        },
        {
          "name": "rightName",
          "type": "string"
        }
      ],
      "name": "creat",
      "outputs": [],
      "payable": false,
      "stateMutability": "nonpayable",
      "type": "function",
      "signature": "0xc7c1c2c2"
    },
    {
      "constant": false,
      "inputs": [
        {
          "name": "_id",
          "type": "uint256"
        }
      ],
      "name": "finish",
      "outputs": [],
      "payable": false,
      "stateMutability": "nonpayable",
      "type": "function",
      "signature": "0xd353a1cb"
    },
    {
      "constant": false,
      "inputs": [
        {
          "name": "_id",
          "type": "uint256"
        }
      ],
      "name": "lock",
      "outputs": [],
      "payable": false,
      "stateMutability": "nonpayable",
      "type": "function",
      "signature": "0xdd467064"
    },
    {
      "anonymous": false,
      "inputs": [
        {
          "indexed": true,
          "name": "_id",
          "type": "uint256"
        },
        {
          "indexed": true,
          "name": "player",
          "type": "address"
        },
        {
          "indexed": false,
          "name": "combatant",
          "type": "uint256"
        },
        {
          "indexed": false,
          "name": "stakes",
          "type": "uint256"
        }
      ],
      "name": "_join",
      "type": "event",
      "signature": "0xadd33c52831a0b1c1f1f17c56aa20b5c040473e944e6f3475d38556c779df755"
    },
    {
      "anonymous": false,
      "inputs": [
        {
          "indexed": true,
          "name": "_id",
          "type": "uint256"
        },
        {
          "indexed": true,
          "name": "player",
          "type": "address"
        },
        {
          "indexed": false,
          "name": "combatant",
          "type": "uint256"
        },
        {
          "indexed": false,
          "name": "stakes",
          "type": "uint256"
        }
      ],
      "name": "_repent",
      "type": "event",
      "signature": "0x73eed075d58172e0b579e14129d5943b894bbc02470e758208ed3cf164b4e7a9"
    },
    {
      "anonymous": false,
      "inputs": [
        {
          "indexed": true,
          "name": "_id",
          "type": "uint256"
        },
        {
          "indexed": true,
          "name": "player",
          "type": "address"
        },
        {
          "indexed": false,
          "name": "award",
          "type": "uint256"
        }
      ],
      "name": "_withdraw",
      "type": "event",
      "signature": "0x491234459cc5c2ddc7327952ccf826b06930abbe200441971916f5e393da8872"
    },
    {
      "anonymous": false,
      "inputs": [
        {
          "indexed": true,
          "name": "_id",
          "type": "uint256"
        },
        {
          "indexed": false,
          "name": "gameName",
          "type": "string"
        },
        {
          "indexed": false,
          "name": "startTime",
          "type": "uint256"
        },
        {
          "indexed": false,
          "name": "leftName",
          "type": "string"
        },
        {
          "indexed": false,
          "name": "rightName",
          "type": "string"
        }
      ],
      "name": "_creat",
      "type": "event",
      "signature": "0xb8c8322ac4e6ae368af6cfc837a0906e4ee9a35f49ef8b747adcd46dfdac5859"
    },
    {
      "anonymous": false,
      "inputs": [
        {
          "indexed": true,
          "name": "_id",
          "type": "uint256"
        }
      ],
      "name": "_cancel",
      "type": "event",
      "signature": "0x4efae47c6e6478ccc4dce1a2eefdbc93ba85a2822602ec18860a9ea5ce841c5b"
    },
    {
      "anonymous": false,
      "inputs": [
        {
          "indexed": true,
          "name": "_id",
          "type": "uint256"
        }
      ],
      "name": "_lock",
      "type": "event",
      "signature": "0x8ec22837bcbc063bf52cff498b2e9675cec54e6a3b14d076c920a6c8272f99d0"
    },
    {
      "anonymous": false,
      "inputs": [
        {
          "indexed": true,
          "name": "_id",
          "type": "uint256"
        },
        {
          "indexed": false,
          "name": "winner",
          "type": "uint256"
        }
      ],
      "name": "_finish",
      "type": "event",
      "signature": "0x0927c65aa785cfbe2fdc3436508df236f9d1ba0b35b6ed3a55e73a3159dca7a8"
    },
    {
      "constant": true,
      "inputs": [
        {
          "name": "_id",
          "type": "uint256"
        }
      ],
      "name": "getQuiz",
      "outputs": [
        {
          "name": "id",
          "type": "uint256"
        },
        {
          "name": "stage",
          "type": "uint8"
        },
        {
          "name": "startTime",
          "type": "uint256"
        },
        {
          "name": "gameName",
          "type": "string"
        },
        {
          "name": "leftName",
          "type": "string"
        },
        {
          "name": "leftBet",
          "type": "uint256"
        },
        {
          "name": "leftScore",
          "type": "uint256"
        },
        {
          "name": "rightName",
          "type": "string"
        },
        {
          "name": "rightBet",
          "type": "uint256"
        },
        {
          "name": "rightScore",
          "type": "uint256"
        }
      ],
      "payable": false,
      "stateMutability": "view",
      "type": "function",
      "signature": "0xa3f7e096"
    },
    {
      "constant": true,
      "inputs": [
        {
          "name": "_id",
          "type": "uint256"
        },
        {
          "name": "combatant",
          "type": "uint256"
        }
      ],
      "name": "getPlayerCombatantBet",
      "outputs": [
        {
          "name": "",
          "type": "uint256"
        }
      ],
      "payable": false,
      "stateMutability": "view",
      "type": "function",
      "signature": "0x3a4164f1"
    },
    {
      "constant": true,
      "inputs": [
        {
          "name": "_id",
          "type": "uint256"
        }
      ],
      "name": "getPlayerAward",
      "outputs": [
        {
          "name": "",
          "type": "uint256"
        }
      ],
      "payable": false,
      "stateMutability": "view",
      "type": "function",
      "signature": "0xff87bcc2"
    },
    {
      "constant": true,
      "inputs": [
        {
          "name": "_id",
          "type": "uint256"
        }
      ],
      "name": "getQuizWinner",
      "outputs": [
        {
          "name": "",
          "type": "uint256"
        }
      ],
      "payable": false,
      "stateMutability": "view",
      "type": "function",
      "signature": "0xd90603d2"
    }
  ],
  "bytecode": "0x608060405268056bc75e2d6310000060005534801561001d57600080fd5b506120988061002d6000396000f3fe6080604052600436106100ba576000357c0100000000000000000000000000000000000000000000000000000000900463ffffffff1680632e1a7d4d146100bf5780633a4164f1146100fa5780633f0a92fb1461015357806340e58ee5146101a25780636ce52790146101dd57806379e66b4614610222578063a3f7e0961461025a578063c7c1c2c214610425578063d353a1cb1461062f578063d90603d21461066a578063dd467064146106b9578063ff87bcc2146106f4575b600080fd5b3480156100cb57600080fd5b506100f8600480360360208110156100e257600080fd5b8101908080359060200190929190505050610743565b005b34801561010657600080fd5b5061013d6004803603604081101561011d57600080fd5b8101908080359060200190929190803590602001909291905050506109be565b6040518082815260200191505060405180910390f35b34801561015f57600080fd5b506101a06004803603606081101561017657600080fd5b81019080803590602001909291908035906020019092919080359060200190929190505050610ab3565b005b3480156101ae57600080fd5b506101db600480360360208110156101c557600080fd5b8101908080359060200190929190505050610b98565b005b3480156101e957600080fd5b506102206004803603604081101561020057600080fd5b810190808035906020019092919080359060200190929190505050610cb1565b005b6102586004803603604081101561023857600080fd5b810190808035906020019092919080359060200190929190505050611030565b005b34801561026657600080fd5b506102936004803603602081101561027d57600080fd5b81019080803590602001909291905050506112f1565b604051808b81526020018a60048111156102a957fe5b60ff16815260200189815260200180602001806020018881526020018781526020018060200186815260200185815260200184810384528b818151815260200191508051906020019080838360005b838110156103135780820151818401526020810190506102f8565b50505050905090810190601f1680156103405780820380516001836020036101000a031916815260200191505b5084810383528a818151815260200191508051906020019080838360005b8381101561037957808201518184015260208101905061035e565b50505050905090810190601f1680156103a65780820380516001836020036101000a031916815260200191505b50848103825287818151815260200191508051906020019080838360005b838110156103df5780820151818401526020810190506103c4565b50505050905090810190601f16801561040c5780820380516001836020036101000a031916815260200191505b509d505050505050505050505050505060405180910390f35b34801561043157600080fd5b5061062d600480360360a081101561044857600080fd5b8101908080359060200190929190803590602001909291908035906020019064010000000081111561047957600080fd5b82018360208201111561048b57600080fd5b803590602001918460018302840111640100000000831117156104ad57600080fd5b91908080601f016020809104026020016040519081016040528093929190818152602001838380828437600081840152601f19601f8201169050808301925050505050505091929192908035906020019064010000000081111561051057600080fd5b82018360208201111561052257600080fd5b8035906020019184600183028401116401000000008311171561054457600080fd5b91908080601f016020809104026020016040519081016040528093929190818152602001838380828437600081840152601f19601f820116905080830192505050505050509192919290803590602001906401000000008111156105a757600080fd5b8201836020820111156105b957600080fd5b803590602001918460018302840111640100000000831117156105db57600080fd5b91908080601f016020809104026020016040519081016040528093929190818152602001838380828437600081840152601f19601f820116905080830192505050505050509192919290505050611625565b005b34801561063b57600080fd5b506106686004803603602081101561065257600080fd5b8101908080359060200190929190505050611959565b005b34801561067657600080fd5b506106a36004803603602081101561068d57600080fd5b8101908080359060200190929190505050611a79565b6040518082815260200191505060405180910390f35b3480156106c557600080fd5b506106f2600480360360208110156106dc57600080fd5b8101908080359060200190929190505050611a8b565b005b34801561070057600080fd5b5061072d6004803603602081101561071757600080fd5b8101908080359060200190929190505050611ba4565b6040518082815260200191505060405180910390f35b600060016000838152602001908152602001600020905060048081111561076657fe5b8160000160009054906101000a900460ff16600481111561078357fe5b1415156107f8576040517f08c379a00000000000000000000000000000000000000000000000000000000081526004018080602001828103825260158152602001807f5175697a206d7573742062652066696e6973686564000000000000000000000081525060200191505060405180910390fd5b8060040160003373ffffffffffffffffffffffffffffffffffffffff1673ffffffffffffffffffffffffffffffffffffffff16815260200190815260200160002060009054906101000a900460ff161515156108bc576040517f08c379a00000000000000000000000000000000000000000000000000000000081526004018080602001828103825260168152602001807f48617320616c726561647920776974686472617765640000000000000000000081525060200191505060405180910390fd5b60006108c783611cca565b905060018260040160003373ffffffffffffffffffffffffffffffffffffffff1673ffffffffffffffffffffffffffffffffffffffff16815260200190815260200160002060006101000a81548160ff0219169083151502179055503373ffffffffffffffffffffffffffffffffffffffff166108fc829081150290604051600060405180830381858888f19350505050158015610969573d6000803e3d6000fd5b503373ffffffffffffffffffffffffffffffffffffffff16837f491234459cc5c2ddc7327952ccf826b06930abbe200441971916f5e393da8872836040518082815260200191505060405180910390a3505050565b600060018214806109cf5750600282145b1515610a43576040517f08c379a000000000000000000000000000000000000000000000000000000000815260040180806020018281038252601c8152602001807f436f6d626174616e742063616e206f6e6c792062652031206f7220320000000081525060200191505060405180910390fd5b60016000848152602001908152602001600020600301600083815260200190815260200160002060030160003373ffffffffffffffffffffffffffffffffffffffff1673ffffffffffffffffffffffffffffffffffffffff16815260200190815260200160002054905092915050565b60026004811115610ac057fe5b6001600085815260200190815260200160002060000160009054906101000a900460ff166004811115610aef57fe5b141515610b64576040517f08c379a00000000000000000000000000000000000000000000000000000000081526004018080602001828103825260138152602001807f5175697a206d757374206265206c6f636b65640000000000000000000000000081525060200191505060405180910390fd5b8060016000858152602001908152602001600020600301600084815260200190815260200160002060000181905550505050565b600480811115610ba457fe5b6001600083815260200190815260200160002060000160009054906101000a900460ff166004811115610bd357fe5b14151515610c49576040517f08c379a00000000000000000000000000000000000000000000000000000000081526004018080602001828103825260198152602001807f5175697a206d757374206e6f742062652066696e69736865640000000000000081525060200191505060405180910390fd5b60036001600083815260200190815260200160002060000160006101000a81548160ff02191690836004811115610c7c57fe5b0217905550807f4efae47c6e6478ccc4dce1a2eefdbc93ba85a2822602ec18860a9ea5ce841c5b60405160405180910390a250565b60006001600084815260200190815260200160002090506000816003016000848152602001908152602001600020905060016004811115610cee57fe5b8260000160009054906101000a900460ff166004811115610d0b57fe5b1480610d3e575060036004811115610d1f57fe5b8260000160009054906101000a900460ff166004811115610d3c57fe5b145b1515610db2576040517f08c379a00000000000000000000000000000000000000000000000000000000081526004018080602001828103825260208152602001807f5175697a206d75737420626520616374697665206f722063616e63656c6c656481525060200191505060405180910390fd5b6001831480610dc15750600283145b1515610e35576040517f08c379a000000000000000000000000000000000000000000000000000000000815260040180806020018281038252601c8152602001807f436f6d626174616e742063616e206f6e6c792062652031206f7220320000000081525060200191505060405180910390fd5b60008160030160003373ffffffffffffffffffffffffffffffffffffffff1673ffffffffffffffffffffffffffffffffffffffff1681526020019081526020016000205414151515610eef576040517f08c379a000000000000000000000000000000000000000000000000000000000815260040180806020018281038252601e8152602001807f5468697320636f6d626174616e74206973206e6f742073656c6563746564000081525060200191505060405180910390fd5b60008160030160003373ffffffffffffffffffffffffffffffffffffffff1673ffffffffffffffffffffffffffffffffffffffff16815260200190815260200160002054905080826001015403826001018190555060008260030160003373ffffffffffffffffffffffffffffffffffffffff1673ffffffffffffffffffffffffffffffffffffffff168152602001908152602001600020819055503373ffffffffffffffffffffffffffffffffffffffff166108fc829081150290604051600060405180830381858888f19350505050158015610fd1573d6000803e3d6000fd5b503373ffffffffffffffffffffffffffffffffffffffff16857f73eed075d58172e0b579e14129d5943b894bbc02470e758208ed3cf164b4e7a98684604051808381526020018281526020019250505060405180910390a35050505050565b60006001600084815260200190815260200160002090506001600481111561105457fe5b8160000160009054906101000a900460ff16600481111561107157fe5b1415156110e6576040517f08c379a00000000000000000000000000000000000000000000000000000000081526004018080602001828103825260138152602001807f5175697a206d757374206265206163746976650000000000000000000000000081525060200191505060405180910390fd5b60018214806110f55750600282145b1515611169576040517f08c379a000000000000000000000000000000000000000000000000000000000815260040180806020018281038252601c8152602001807f436f6d626174616e742063616e206f6e6c792062652031206f7220320000000081525060200191505060405180910390fd5b60005434101515156111e3576040517f08c379a000000000000000000000000000000000000000000000000000000000815260040180806020018281038252601d8152602001807f426574206d7573742062652061626f766520746865206d696e696d756d00000081525060200191505060405180910390fd5b60008160030160008481526020019081526020016000209050348160010154018160010181905550348160030160003373ffffffffffffffffffffffffffffffffffffffff1673ffffffffffffffffffffffffffffffffffffffff16815260200190815260200160002054018160030160003373ffffffffffffffffffffffffffffffffffffffff1673ffffffffffffffffffffffffffffffffffffffff168152602001908152602001600020819055503373ffffffffffffffffffffffffffffffffffffffff16847fadd33c52831a0b1c1f1f17c56aa20b5c040473e944e6f3475d38556c779df7558534604051808381526020018281526020019250505060405180910390a350505050565b600080600060608060008060606000806000600481111561130e57fe5b600160008d815260200190815260200160002060000160009054906101000a900460ff16600481111561133d57fe5b141515156113b3576040517f08c379a000000000000000000000000000000000000000000000000000000000815260040180806020018281038252600f8152602001807f5175697a206e6f7420657869746564000000000000000000000000000000000081525060200191505060405180910390fd5b6000600160008d815260200190815260200160002090508b9a508060000160009054906101000a900460ff16995080600101549850806002018054600181600116156101000203166002900480601f0160208091040260200160405190810160405280929190818152602001828054600181600116156101000203166002900480156114805780601f1061145557610100808354040283529160200191611480565b820191906000526020600020905b81548152906001019060200180831161146357829003601f168201915b5050505050975060008160030160006001815260200190815260200160002090506000826003016000600281526020019081526020016000209050816002018054600181600116156101000203166002900480601f0160208091040260200160405190810160405280929190818152602001828054600181600116156101000203166002900480156115535780601f1061152857610100808354040283529160200191611553565b820191906000526020600020905b81548152906001019060200180831161153657829003601f168201915b505050505098508160010154975081600001549650806002018054600181600116156101000203166002900480601f0160208091040260200160405190810160405280929190818152602001828054600181600116156101000203166002900480156116005780601f106115d557610100808354040283529160200191611600565b820191906000526020600020905b8154815290600101906020018083116115e357829003601f168201915b5050505050955080600101549450806000015493505050509193959799509193959799565b6000600481111561163257fe5b6001600087815260200190815260200160002060000160009054906101000a900460ff16600481111561166157fe5b1415156116d6576040517f08c379a00000000000000000000000000000000000000000000000000000000081526004018080602001828103825260118152602001807f5175697a206d757374206265206e6f6e6500000000000000000000000000000081525060200191505060405180910390fd5b600180600087815260200190815260200160002060000160006101000a81548160ff0219169083600481111561170857fe5b021790555083600160008781526020019081526020016000206001018190555082600160008781526020019081526020016000206002019080519060200190611752929190611fc7565b5081600160008781526020019081526020016000206003016000600181526020019081526020016000206002019080519060200190611792929190611fc7565b50806001600087815260200190815260200160002060030160006002815260200190815260200160002060020190805190602001906117d2929190611fc7565b50847fb8c8322ac4e6ae368af6cfc837a0906e4ee9a35f49ef8b747adcd46dfdac58598486858560405180806020018581526020018060200180602001848103845288818151815260200191508051906020019080838360005b8381101561184757808201518184015260208101905061182c565b50505050905090810190601f1680156118745780820380516001836020036101000a031916815260200191505b50848103835286818151815260200191508051906020019080838360005b838110156118ad578082015181840152602081019050611892565b50505050905090810190601f1680156118da5780820380516001836020036101000a031916815260200191505b50848103825285818151815260200191508051906020019080838360005b838110156119135780820151818401526020810190506118f8565b50505050905090810190601f1680156119405780820380516001836020036101000a031916815260200191505b5097505050505050505060405180910390a25050505050565b60006001600083815260200190815260200160002090506002600481111561197d57fe5b8160000160009054906101000a900460ff16600481111561199a57fe5b141515611a0f576040517f08c379a00000000000000000000000000000000000000000000000000000000081526004018080602001828103825260138152602001807f5175697a206d757374206265206c6f636b65640000000000000000000000000081525060200191505060405180910390fd5b60048160000160006101000a81548160ff02191690836004811115611a3057fe5b0217905550817f0927c65aa785cfbe2fdc3436508df236f9d1ba0b35b6ed3a55e73a3159dca7a8611a6084611e7e565b6040518082815260200191505060405180910390a25050565b6000611a8482611e7e565b9050919050565b60016004811115611a9857fe5b6001600083815260200190815260200160002060000160009054906101000a900460ff166004811115611ac757fe5b141515611b3c576040517f08c379a00000000000000000000000000000000000000000000000000000000081526004018080602001828103825260138152602001807f5175697a206d757374206265206163746976650000000000000000000000000081525060200191505060405180910390fd5b60026001600083815260200190815260200160002060000160006101000a81548160ff02191690836004811115611b6f57fe5b0217905550807f8ec22837bcbc063bf52cff498b2e9675cec54e6a3b14d076c920a6c8272f99d060405160405180910390a250565b600080600160008481526020019081526020016000209050600480811115611bc857fe5b8160000160009054906101000a900460ff166004811115611be557fe5b141515611c5a576040517f08c379a00000000000000000000000000000000000000000000000000000000081526004018080602001828103825260158152602001807f5175697a206d7573742062652066696e6973686564000000000000000000000081525060200191505060405180910390fd5b8060040160003373ffffffffffffffffffffffffffffffffffffffff1673ffffffffffffffffffffffffffffffffffffffff16815260200190815260200160002060009054906101000a900460ff1615611cb8576000915050611cc5565b611cc183611cca565b9150505b919050565b6000806001600084815260200190815260200160002090506000816003016000600281526020019081526020016000206001015482600301600060018152602001908152602001600020600101540190506000611d2685611e7e565b905060006001821480611d395750600282145b15611dc0578360030160008381526020019081526020016000206001015484600301600084815260200190815260200160002060030160003373ffffffffffffffffffffffffffffffffffffffff1673ffffffffffffffffffffffffffffffffffffffff168152602001908152602001600020548402811515611db857fe5b049050611e72565b8360030160006002815260200190815260200160002060030160003373ffffffffffffffffffffffffffffffffffffffff1673ffffffffffffffffffffffffffffffffffffffff168152602001908152602001600020548460030160006001815260200190815260200160002060030160003373ffffffffffffffffffffffffffffffffffffffff1673ffffffffffffffffffffffffffffffffffffffff168152602001908152602001600020540190505b80945050505050919050565b600080600160008481526020019081526020016000209050600480811115611ea257fe5b8160000160009054906101000a900460ff166004811115611ebf57fe5b141515611f34576040517f08c379a00000000000000000000000000000000000000000000000000000000081526004018080602001828103825260158152602001807f5175697a206d7573742062652046696e6973686564000000000000000000000081525060200191505060405180910390fd5b806003016000600281526020019081526020016000206000015481600301600060018152602001908152602001600020600001541115611f78576001915050611fc2565b806003016000600281526020019081526020016000206000015481600301600060018152602001908152602001600020600001541015611fbc576002915050611fc2565b60009150505b919050565b828054600181600116156101000203166002900490600052602060002090601f016020900481019282601f1061200857805160ff1916838001178555612036565b82800160010185558215612036579182015b8281111561203557825182559160200191906001019061201a565b5b5090506120439190612047565b5090565b61206991905b8082111561206557600081600090555060010161204d565b5090565b9056fea165627a7a72305820b1e792686f652830c019804ac305566cf27af48bdabe2b3f4f9dad6ef3634b380029",
  "source": "pragma solidity >=0.4.24 <0.6.0;\n\nimport \"./Player.sol\";\n\ncontract Visitor is Player {\n    function getQuiz(uint _id) public view returns(\n        uint id, Stages stage,uint startTime, string memory gameName,\n        string memory leftName, uint leftBet, uint leftScore,\n        string memory rightName, uint rightBet,  uint rightScore\n    ) {\n        require(quizs[_id].stage != Stages.None, \"Quiz not exited\");\n        Quiz storage quiz = quizs[_id];\n        id = _id;\n        stage = quiz.stage;\n        startTime = quiz.startTime;\n        gameName = quiz.gameName;\n\n        Combatant storage left = quiz.combatants[left];\n        Combatant storage right = quiz.combatants[right];\n\n        leftName = left.name;\n        leftBet = left.totalBet;\n        leftScore = left.score;\n        rightName = right.name;\n        rightBet = right.totalBet;\n        rightScore = right.score;\n    }\n\n    function getPlayerCombatantBet(uint _id, uint combatant) public view returns(uint) {\n        require(combatant == left || combatant == right, \"Combatant can only be 1 or 2\");\n        return quizs[_id].combatants[combatant].bets[msg.sender];\n    }\n\n    function getPlayerAward(uint _id) public view returns(uint) {\n        Quiz storage quiz = quizs[_id];\n        require(quiz.stage == Stages.Finished, \"Quiz must be finished\");\n        if (quiz.hasWithdraw[msg.sender]) {\n            return 0;\n        }\n        return _award(_id);\n    }\n\n    function getQuizWinner(uint _id) public view returns(uint) {\n        return _winner(_id);\n    }\n}\n",
  "sourcePath": "/Users/hanxiao/Desktop/bet/contracts/Visitor.sol",
  "compiler": {
    "name": "solc",
    "version": "0.5.0+commit.1d4f565a.Emscripten.clang"
  },
  "schemaVersion": "3.0.1",
  "updatedAt": "2019-03-22T04:22:30.503Z",
  "devdoc": {
    "methods": {}
  },
  "userdoc": {
    "methods": {}
  }
}